:020000040800F2
:100000000000022065430008090C00080B0C0008E2
:100010000D0C00080F0C0008110C00080000000077
:10002000000000000000000000000000130C0008A9
:10003000150C000800000000170C0008190C00083F
:10004000B5430008B5430008B5430008B5430008B0
:10005000B5430008B5430008B5430008B5430008A0
:10006000B5430008B5430008B5430008B543000890
:10007000B5430008B5430008B5430008B543000880
:10008000B5430008B5430008B5430008B543000870
:10009000B5430008B5430008B5430008210C00082B
:1000A000B5430008B5430008B5430008B543000850
:1000B000B5430008B5430008B5430008B543000840
:1000C000B5430008B5430008B5430008B543000830
:1000D000B5430008B5430008B5430008B543000820
:1000E000650C0008B543000800000000B543000897
:1000F000B5430008B5430008B5430008B543000800
:10010000B5430008B5430008B5430008B5430008EF
:10011000B5430008B5430008B5430008B5430008DF
:10012000B5430008B5430008B5430008B5430008CF
:10013000B5430008B5430008B5430008B5430008BF
:1001400000000000000000000000000000000000AF
:10015000B5430008B5430008B5430008B54300089F
:10016000B5430008B5430008B5430008B54300088F
:10017000B5430008B5430008B5430008B54300087F
:10018000B5430008B5430008B5430008B54300086F
:10019000B5430008B5430008B5430008B54300085F
:1001A000B5430008B5430008B5430008B54300084F
:1001B000B5430008B5430008B5430008B54300083F
:1001C000B5430008B5430008B5430008B54300082F
:1001D000B5430008B5430008B5430008B54300081F
:1001E000B5430008B5430008B5430008B54300080F
:1001F000B5430008B5430008B5430008B5430008FF
:10020000B5430008B5430008B5430008B5430008EE
:10021000B5430008B5430008B5430008B5430008DE
:10022000B5430008B5430008B543000800000000CE
:10023000B5430008B543000800000000B5430008BE
:10024000B5430008B5430008B5430008B5430008AE
:10025000B5430008B5430008B5430008B54300089E
:10026000B5430008B5430008B5430008B54300088E
:10027000B5430008B5430008B5430008000000007E
:10028000B5430008B5430008B5430008000000006E
:0802900000000000B543000866
:1002980053B94AB9002908BF00281CBF4FF0FF31E5
:1002A8004FF0FF3000F00CB8ADF1080C6DE904CE4A
:1002B80004F0AAF8DDF804E0DDE9022304B0704791
:1002C800704700BF0348044B834202D0034B03B17D
:1002D80018477047100000201000002000000000A0
:1002E8000548064B1B1AD90F01EBA301491002D090
:1002F800034B03B11847704710000020100000207E
:100308000000000010B5064C237843B9FFF7DAFF68
:10031800044B13B10448AFF300800123237010BDD0
:100328001000002000000000CC46000808B5054B6E
:100338001BB105490548AFF30080BDE80840FFF749
:10034800CFBF00BF0000000014000020CC4600080A
:1003580010B503F0A9FF00F023F800F0B5F900F09C
:100368004BF900F07DF900F0CFF800F075F800F0D7
:100378001DFB012000F0A2FA0AE0601CC0B200F0E8
:1003880007FB0134052CF8DD4FF4FA6003F0CCFFCD
:100398000024F7E708B572B600F084FAFEE700001B
:1003A80000B59DB04C22002109A804F000F82022D5
:1003B800002101A803F0FBFF022003F023FF002324
:1003C8000093224BDA6A22F00102DA62DB6A03F058
:1003D800010300931E4A936923F4404343F4804386
:1003E8009361936903F440430093009B184B9B6906
:1003F80013F4005FFAD0174A936A23F00303936259
:100408000223099301230C9340230D930023129395
:10041800139309A801F0FEFF90B93F23019300232D
:10042800029303930493059340220692079308933B
:10043800012101A802F022FC28B91DB05DF804FBD7
:10044800FFF7A8FFE9E7FFF7A5FFF6E70004005864
:10045800004802580044025800B58FB000230A93A0
:100468000B930C930D9307930893099300930193AF
:100478000293039304930593069322484FF0804216
:100488000260436083604FF6FF12C26003618361BC
:1004980000F0FAFF38BB4FF480530A930AA91948B1
:1004A80001F046F910BB174801F01EF808BB0023FD
:1004B8000793099307A9134801F048FAE0B96023A4
:1004C80000934FF4FA4301930023029304930C2200
:1004D80069460C4801F082F888B90A4800F01CFC0B
:1004E8000FB05DF804FBFFF755FFD4E7FFF752FFA5
:1004F800D9E7FFF74FFFDAE7FFF74CFFDFE7FFF732
:1005080049FFEAE79801002010B59AB00024169434
:100518001794189419941394149415940C940D9496
:100528000E940F941094119412942C22214601A831
:1005380003F03DFF2E482F4B0360446084604FF664
:10054800FF13C36004614461846100F09DFF0028CB
:100558003BD14FF48053169316A9254801F0E8F8CB
:10056800002835D1224800F0BFFF002833D10023EE
:100578001393159313A91E4801F0E8F900282DD10B
:1005880060230C934FF4FA430D9300220E920F92BE
:100598001092119212920CA9154801F01FF800BB95
:1005A8000023019302930393049305934FF400529D
:1005B800069207930B9301A90D4801F017FA98B911
:1005C8000B4800F0A9FB1AB010BDFFF7E3FEC0E727
:1005D800FFF7E0FEC6E7FFF7DDFEC8E7FFF7DAFE44
:1005E800CEE7FFF7D7FEDBE7FFF7D4FEE8E700BF6B
:1005F8004C0100200040014008B51748174B036024
:100608004FF46123436000238360C36003610C22BD
:1006180042618361C36103624362836201F037FE12
:1006280070B900210C4801F0AAFE60B900210A48FF
:1006380001F0CAFE50B9084801F082FE48B908BD69
:10064800FFF7A8FEEDE7FFF7A5FEEFE7FFF7A2FE2D
:10065800F1E7FFF79FFEF2E7BC0000200010014021
:1006680008B51748174B03604FF461234360002314
:100678008360C36003610C2242618361C3610362CA
:100688004362836201F003FE70B900210C4801F057
:1006980076FE60B900210A4801F096FE50B9084874
:1006A80001F04EFE48B908BDFFF774FEEDE7FFF70D
:1006B80071FEEFE7FFF76EFEF1E7FFF76BFEF2E77B
:1006C8002C000020004800402DE9F0418AB00024A9
:1006D80005940694079408940994694BD3F8E0208C
:1006E80042F00102C3F8E020D3F8E02002F0010252
:1006F8000092009AD3F8E02042F00202C3F8E0200A
:10070800D3F8E02002F002020192019AD3F8E02027
:1007180042F00402C3F8E020D3F8E02002F004021B
:100728000292029AD3F8E02042F00802C3F8E020CF
:10073800D3F8E02002F008020392039AD3F8E020ED
:1007480042F01002C3F8E020D3F8E03003F01003C1
:100758000493049B4B4F01224FF4E061384603F0A9
:1007680042FD4FF4E0630593112306930794089420
:1007780005A9384603F020FCDFF8108122461C2129
:10078800404603F030FD404E22460721304603F034
:100798002AFD1C230593012506950794089405A9AD
:1007A800404603F009FC072305930695079408942F
:1007B80005A9304603F000FC4FF400530593069456
:1007C800079405A9384603F0F7FB4FF44043059317
:1007D8004FF44418CDF81880079405A9384603F05B
:1007E800EBFB4FF440730593CDF818800794A7F5F9
:1007F800806705A9384603F0DFFB2246214617200B
:1008080000F01AFC172000F027FC22462146282079
:1008180000F012FC282000F01FFC2A464FF48071DB
:10082800304603F0E0FC2A464FF40061304603F0FE
:10083800DAFC22464FF48051304603F0D4FC2246BD
:100848008021384603F0CFFC4FF4C8530593069532
:10085800079405A9304603F0AFFB8023059306955E
:10086800079405A9384603F0A7FB032305930694CC
:10087800079405A9384603F09FFB0AB0BDE8F0814C
:1008880000440258000C0258000002580010025898
:1008980008B501224FF4E061014803F0A4FC08BD4B
:1008A800000C025808B5FFF7F3FF00224FF400715F
:1008B800014803F098FC08BD000C025810B5044626
:1008C800FFF7E6FF601E06280BD8DFE800F0040BF0
:1008D800121920272E0000224FF48071164803F0C9
:1008E80082FC10BD00224FF40071134803F07BFC1A
:1008F800F7E700224FF480610F4803F074FCF0E73B
:1009080000224FF4A0610C4803F06DFCE9E70022D7
:100918004FF4C061084803F066FCE2E700224FF498
:100928004071054803F05FFCDBE700224FF4E0610B
:10093800014803F058FCD4E7000C025830B589B0E0
:1009480005460C46114B93E803000690ADF81C10C1
:10095800EE4603F1080CBCE80F00AEE80F009CE877
:1009680003008EE80300611E08AB03EB810353F814
:10097800203C2B6004F11F030DEB030111F8082C38
:1009880001239340AB8009B030BD00BFE4460008A6
:1009980000B583B001466846FFF7D0FFBDF80410E4
:1009A800009803F026FC03B05DF804FB034B00221B
:1009B8001A7004221A725A60DA607047E401002043
:1009C800074B1A6840F2E7339A4204D0044A136886
:1009D800013313607047024B00221A60704700BF52
:1009E80004020020074B1A6840F2E7339A4204D009
:1009F800044A1368013313607047024B00221A60DF
:100A0800704700BFFC010020064B1B6823B9054B4B
:100A180040F2E7321A607047024A1368013B1360DC
:100A2800704700BF04020020064B1B6823B9054B22
:100A380040F2E7321A607047024A1368013B1360BC
:100A4800704700BFFC01002008B54FF480710F48C3
:100A580003F0C2FBA8B10E4B01221A700D4B1B7894
:100A680093B9FFF7D1FF0C4B1B786BB10B4B1B688D
:100A780053B900210A4800F007FF074B00221A70FB
:100A880002E0034B00221A7008BD00BF000802589C
:100A98000102002000020020F901002004020020C9
:100AA8004C01002008B54FF40071174803F094FB7F
:100AB80028B3164B01221A70154B1B7813BBFFF78E
:100AC8007FFF144B1B781BB1134B1B68FA2B0ED0FE
:100AD800124B1B78B3B1104B1B68472B12D1002166
:100AE8000F4800F0D1FE0D4B00221A700AE00021D9
:100AF8000B4800F0C9FE074B00221A7002E0034BB6
:100B080000221A7008BD00BF000802580002002029
:100B180001020020F801002004020020F501002055
:100B28004C01002008B54FF480410F4803F054FBF6
:100B3800A8B10E4B01221A700D4B1B7893B9FFF721
:100B480073FF0C4B1B786BB10B4B1B6853B90C2113
:100B58000A4800F099FE074B00221A7002E0034B86
:100B680000221A7008BD00BF000C0258FB010020CB
:100B7800FA010020F7010020FC0100209801002064
:100B880008B54FF40041174803F026FB28B3164B6D
:100B980001221A70154B1B7813BBFFF723FF144B68
:100BA8001B781BB1134B1B68FA2B0ED0124B1B780A
:100BB800B3B1104B1B68472B12D10C210F4800F022
:100BC80063FE0D4B00221A700AE00C210B4800F05E
:100BD8005BFE074B00221A7002E0034B00221A70DA
:100BE80008BD00BF000C0258FA010020FB010020DC
:100BF800F6010020FC010020F401002098010020EB
:100C0800FEE7FEE7FEE7FEE7FEE77047704770473E
:100C180008B503F077FB08BD08B54FF0B043D3F82B
:100C2800883013F4807F07D14FF0B043D3F8883071
:100C380013F4007F09D108BD4FF0B0434FF4807220
:100C4800C3F88820FFF700FFEEE74FF0B0434FF4FA
:100C58000072C3F88820FFF725FFECE708B54FF0CE
:100C6800B043D3F8883013F4804F07D14FF0B04326
:100C7800D3F8883013F4004F09D108BD4FF0B043C2
:100C88004FF48042C3F88820FFF74CFFEEE74FF09F
:100C9800B0434FF40042C3F88820FFF771FFECE738
:100CA80082B0074BD3F8F42042F00202C3F8F420D4
:100CB800D3F8F43003F002030193019B02B07047AC
:100CC8000044025882B00368B3F1804F04D0104A40
:100CD80093420FD002B070470E4BD3F8E82042F091
:100CE8000102C3F8E820D3F8E83003F001030093C9
:100CF800009BEFE7074BD3F8F02042F48032C3F8AB
:100D0800F020D3F8F03003F480330193019BE1E73E
:100D1800004001400044025800B589B00023039305
:100D280004930593069307930368B3F1804F05D0A6
:100D38001A4A93421AD009B05DF804FB184BD3F84D
:100D4800E02042F00102C3F8E020D3F8E03003F0DD
:100D580001030193019B08230393022304930123B6
:100D6800079303A90F4803F027F9E4E70C4BD3F8DE
:100D7800E02042F01002C3F8E020D3F8E03003F09E
:100D880010030293029B202303930223049304235A
:100D9800079303A9044803F00FF9CCE7004001408A
:100DA80000440258000002580010025810B5B8B0AC
:100DB8000446002133913491359136913791BC2204
:100DC80004A803F0F4FA23683B4A934204D03B4A50
:100DD800934240D038B010BD0123049320230593DB
:100DE8005022069202220792042108910992402279
:100DF8000A920B930823229304A802F0D7F938BB70
:100E08002F4BD3F8F02042F01002C3F8F020D3F8AB
:100E1800F02002F010020092009AD3F8E02042F08D
:100E28000202C3F8E020D3F8E03003F00203019394
:100E3800019B4FF4404333930223349300233593AB
:100E480036930423379333A91E4803F0B5F8C1E756
:100E5800FFF7A0FAD4E70223049304A802F0A6F946
:100E680038BB174BD3F8E82042F48022C3F8E820B7
:100E7800D3F8E82002F480220292029AD3F8E02004
:100E880042F00402C3F8E020D3F8E03003F0040392
:100E98000393039B4FF4406333930223349300235B
:100EA800359336930723379333A9074803F084F81B
:100EB80090E7FFF76FFAD4E70010014000480040C0
:100EC800004402580004025800080258274AD2F881
:100ED800883043F47003C2F88830254B1B6803F050
:100EE8000F03062B06D8224A136823F00F0343F09A
:100EF800070313601F4B1A6842F001021A600022B0
:100F08001A6119681C4A0A401A60194B1B6813F0C9
:100F1800080F06D0164A136823F00F0343F007039F
:100F28001360144B00229A61DA611A6213499962BC
:100F38001349D962134919635A639963DA631964C7
:100F48005A64196821F4802119601A660E4B1B68CF
:100F58006FF30F03B3F1005F03D20C4B0122C3F808
:100F680008210B4B43F2D2021A60704700ED00E0F3
:100F780000200052004402587FEDF6EA0002020207
:100F88000000FF01800201010010005C0080005198
:100F980000400052002807DB00F01F02400901232F
:100FA8009340024A42F82030704700BF00E100E059
:100FB800002804DB0901C9B2044B1954704700F03A
:100FC8000F000901C9B2024B1954704700E400E050
:100FD80014ED00E000B500F00700C0F1070CBCF10B
:100FE800040F28BF4FF0040C031D062B0FD9C31E96
:100FF8004FF0FF3E0EFA0CF021EA000199400EFA7C
:1010080003FE22EA0E0241EA02005DF804FB002317
:10101800EEE700000649CB6823F4E0631B041B0CD1
:10102800000200F4E0600343024A1A43CA607047B2
:1010380000ED00E00000FA0510B50446054BD8683D
:10104800C0F30220FFF7C6FF01462046FFF7B0FFB6
:1010580010BD00BF00ED00E008B5FFF79BFF08BD1D
:101068000138B0F1807F0BD24FF0E0235861054A78
:10107800F02182F823100020986107221A61704736
:101088000120704700ED00E0F0B4036A23F001038B
:101098000362026A466884691E4B23400D681D433B
:1010A80022F002028B6813431B4A1C4CA04218BF53
:1010B80090420CBF012200220CD004F58044A042CB
:1010C80014BF00240124164FB84203D014B9154C9C
:1010D800A04205D123F00803CC68234323F004037E
:1010E8005AB9114A904214BF002201220C4CA04266
:1010F80003D012B90B4A904205D126F440764A69CA
:1011080032438E691643466085614A6842630362CA
:10111800F0BC70478CFFFEFF000001400004014056
:1011280000400140004801400044014070B4036A97
:1011380023F480730362036A4568C4691A4A22402B
:101148000E68164323F400738A6843EA0223174A99
:10115800174CA04218BF90420CBF0122002206D1B2
:1011680023F40063CC6843EA042323F480635AB968
:10117800104A904214BF002201220F4CA04203D013
:1011880012B90E4A904207D125F440524C6942EAFE
:1011980004128C6942EA04154560C6614A68C26354
:1011A800036270BC704700BF8CFFFEFF0000014067
:1011B8000004014000440140004001400048014053
:1011C80070B4036A23F480530362036A4468C569F0
:1011D800144A2A400D6842EA052223F400538D6818
:1011E80043EA0533104E114DA84218BFB0420DD046
:1011F80005F58045A84214BF0025012506F580465F
:10120800B04203D015B90A4DA84204D124F4804451
:101218004D6944EA85144460C2614A680264036205
:1012280070BC7047FF8CFFFE0000014000040140C5
:101238000048014070B4036A23F480330362036AF0
:101248004268456D144E2E400D682E4323F400333A
:101258008C6843EA0443114D114CA04218BFA842C0
:101268000DD004F58044A04214BF0024012405F5E4
:101278008045A84203D014B90A4CA04204D122F4F4
:1012880080324C6942EA0422426046654A688265B7
:10129800036270BC704700BF8FFFFEFF0000014073
:1012A800000401400048014070B4036A23F480132D
:1012B8000362036A4468456D144A2A400D6842EA8D
:1012C800052223F400138D6843EA0553104E114D8F
:1012D800A84218BFB0420DD005F58045A84214BFFA
:1012E8000025012506F58046B04203D015B90A4D00
:1012F800A84204D124F480244D6944EA852444603A
:1013080042654A68C265036270BC7047FF8FFFFE82
:1013180000000140000401400048014010B4036A85
:10132800046A24F001040462846924F0F00C4CEA95
:10133800021223F00A030B43826103625DF8044B37
:10134800704710B4036A23F0100303628469036AC8
:1013580024F4704C4CEA023223F0A00343EA011350
:10136800826103625DF8044B704700008268034B9A
:1013780013400B4343F00703836070478FFFCFFF91
:101388007047000030B50368394A904214BF4FF0E7
:10139800000E4FF0010EB0F1804F14BF72464EF0B0
:1013A8000102AAB9334CA04214BF00240124324DD3
:1013B800A8420DD064B904F1804404F58234A042F7
:1013C80014BF0024012405F50065A84200D01CB113
:1013D80023F070034C68234312BB264A904214BF83
:1013E80000220122244CA0421AD0CAB902F180423C
:1013F80002F58232904214BF0022012204F50064F3
:10140800A0420DD062B91D4A904214BF00220122A9
:1014180004F59A34A04203D012B9194A904204D173
:1014280023F4407CCB6843EA0C0323F080034A6929
:10143800134303608A68C2620A688262114A904252
:1014480014BF73464EF0010363B90C4B984214BFA6
:101458000023012302F57052904203D013B9084BC0
:10146800984201D10B6903630123436130BD00BF7A
:101478000000014000080040000400400044014012
:10148800004801400004014060B310B5044690F8DC
:101498003D3013B3022384F83D30214651F8040B44
:1014A800FFF770FF012384F8483084F83E3084F851
:1014B8003F3084F8403084F8413084F8423084F872
:1014C800433084F8443084F8453084F8463084F852
:1014D800473084F83D30002010BD80F83C30FFF7DD
:1014E800F1FBD7E70120704760B310B5044690F8C8
:1014F8003D3013B3022384F83D30214651F8040BE4
:10150800FFF740FF012384F8483084F83E3084F820
:101518003F3084F8403084F8413084F8423084F811
:10152800433084F8443084F8453084F8463084F8F1
:10153800473084F83D30002010BD80F83C30FFF77C
:101548001FFFD7E70120704770B4036A23F0100328
:101558000362036A456884691A4E26400C6846EAA5
:10156800042623F020038A6843EA0213164A174C1C
:10157800A04218BF90420CBF0122002206D123F0DE
:101588008003CC6843EA041323F040035AB9104A95
:10159800904214BF002201220E4CA04203D012B97F
:1015A8000D4A904207D125F4406C4A694CEA820CF6
:1015B8008A694CEA8205456086614A6882630362EB
:1015C80070BC7047FF8CFFFE000001400004014022
:1015D80000440140004001400048014038B590F8FF
:1015E8003C30012B00F0958004460D46012380F81D
:1015F8003C30142A00F28880DFE802F00B868686E9
:101608001F86868634868686488686865D86868692
:1016180071000068FFF738FD2268936943F00803FA
:1016280093612268936923F00403936122689369A4
:1016380029690B439361002067E00068FFF784FF86
:101648002268936943F4006393612268936923F4E1
:101658008063936122689369296943EA012393614E
:10166800002052E00068FFF761FD2268D36943F06B
:101678000803D3612268D36923F00403D361226885
:10168800D36929690B43D36100203EE00068FFF766
:1016980097FD2268D36943F40063D3612268D36954
:1016A80023F48063D3612268D369296943EA01235B
:1016B800D361002029E00068FFF7BCFD2268536D64
:1016C80043F0080353652268536D23F00403536500
:1016D8002268536D29690B435365002015E00068A3
:1016E800FFF7E2FD2268536D43F4006353652268F7
:1016F800536D23F4806353652268536D296943EA67
:1017080001235365002000E00120002384F83C30C9
:1017180038BD0220FCE710B4846824F47F4C42EA08
:1017280003220A4342EA0C0282605DF8044B7047C8
:1017380090F83C30012B00F08F8010B5044601234F
:1017480080F83C30022380F83D3002689068434BB3
:10175800034093600B68702B55D031D8502B6CD058
:101768001FD8402B0AD1CA6849682068FFF7D6FD00
:1017780040212068FFF7FAFD002029E068D8202BD7
:1017880003D00AD80BB1102B05D119462068FFF7F2
:10179800EDFD00201CE001201AE0302BF5D00120DF
:1017A80016E0602B0AD1CA6849682068FFF7C9FDAE
:1017B80060212068FFF7DAFD002009E0012007E03A
:1017C800B3F5005F2CD00AD8B3F5805F42D1002072
:1017D800012384F83D30002384F83C3010BD204AB2
:1017E8009342D2D007D8B3F5801FCED0B3F1101FE3
:1017F800CBD00120ECE71B4A9342C6D0103293426B
:10180800C3D00120E4E7CB684A6889682068FFF7FD
:1018180082FF2268936843F0770393600020D7E73C
:10182800CB684A6889682068FFF775FF2268936863
:1018380043F4804393600020CAE7CA684968206877
:10184800FFF76CFD50212068FFF790FD0020BFE7EF
:101858000120BDE70120BBE7022070478800CEFFCA
:10186800200010003000100001F01F014FF0010CA3
:101878000CFA01FC036A23EA0C030362036A8A4038
:10188800134303627047000038B504460D46002232
:101898000068FFF7E9FF23682A492B4A934218BFDB
:1018A8008B420BD002F57052934207D002F580624A
:1018B800934203D002F5806293420DD1196A41F236
:1018C8001112114208D1196A40F24442114203D15F
:1018D8005A6C22F400425A642368196A41F21112C0
:1018E800114208D1196A40F24442114203D11A68E0
:1018F80022F001021A60102D1FD8DFE805F0091E3A
:101908001E1E0E1E1E1E121E1E1E161E1E1E1A0035
:10191800012384F83E30002038BD012384F83F308D
:10192800F9E7012384F84030F5E7012384F84130D2
:10193800F1E7012384F84230EDE7012384F84330CE
:10194800E9E700BF000001400004014090F83C2096
:10195800012A45D070B40346012280F83C200222B7
:1019680080F83D200268506894681E4E1E4DAA42B9
:1019780018BFB24203D120F470004D68284320F00C
:1019880070000D68284350601A681648B2F1804FFD
:1019980018BF824217D0A0F57C40824213D000F5D0
:1019A800806082420FD000F5806082420BD000F543
:1019B8007840824207D0A0F56C40824203D000F5FF
:1019C8009430824204D124F08004896821439160D4
:1019D800012283F83D20002083F83C0070BC70474A
:1019E80002207047000001400004014090F83C309C
:1019F800012B3CD030B40246012380F83C30CB6840
:101A080023F440738868034323F4806348680343DE
:101A180023F400630868034323F4805308690343ED
:101A280023F400534869034323F48043886A03433B
:101A380023F47023886943EA004310680D4D0E4C67
:101A4800A04218BFA8420CD123F470034C6A43EAA1
:101A5800045323F08073CC69234323F00073096A8D
:101A68000B434364002082F83C0030BC70470220DE
:101A7800704700BF000001400004014070B586B007
:101A8800044683680269134342691343C2691343D6
:101A980001680868884A02401A430A602268536845
:101AA80023F44053E1680B435360A1692268834BD8
:101AB8009A4201D0236A19439068814B03400B4333
:101AC80093602268D36A23F00F03616A0B43D362E1
:101AD80023687C4A934221D07B4A934200F08C8051
:101AE8007A4A934200F0A280794A934200F0B58086
:101AF800784A934200F0C880774A934200F0F48015
:101B0800764A934200F01981754A934200F02C817D
:101B18006A4A934200F03F81802233E0714A526D55
:101B280002F03802282A65D8DFE812F0290064009C
:101B38006400640064006400640064004D01640093
:101B48006400640064006400640064002B006400A6
:101B58006400640064006400640064005E00640063
:101B68006400640064006400640064006000640051
:101B78006400640064006400640064006200012280
:101B880000E008224D498B4200F02F81E069B0F552
:101B9800004F00F0AF81202A00F20682202A00F2CE
:101BA8005382DFE812F00802220251025102250294
:101BB8005102510251022A025102510251025102AC
:101BC8005102510251022F02510251025102510297
:101BD8005102510251025102510251025102510265
:101BE8005102510251023B021022CBE72022C9E7E1
:101BF8004022C7E78022C5E73A4A526D02F0070241
:101C0800052A11D8DFE812F00600E10008000A00F2
:101C18000C000E000022B5E70822B3E71022B1E756
:101C28002022AFE74022ADE78022ABE72D4A526D74
:101C380002F00702052A0ED8DFE802F003C90507FB
:101C4800090B00229EE708229CE710229AE720222F
:101C580098E7402296E7802294E7224A526D02F0E4
:101C68000702052A0ED8DFE802F003B40507090BBE
:101C7800002287E7082285E7102283E7202281E7F0
:101C880040227FE780227DE7164A526D02F0070264
:101C9800052A0ED8DFE802F0039F0507090B00228A
:101CA80070E708226EE710226CE720226AE74022DC
:101CB80068E7802266E700BFF369FFCF000C005891
:101CC800FFF4FF11001001400044004000480040AC
:101CD800004C0040005000400014014000780040D3
:101CE800007C0040004402587D4A526D02F03802E0
:101CF800282A20D8DFE802F0151F1F1F1F1F1F1FEB
:101D0800711F1F1F1F1F1F1F171F1F1F1F1F1F1F91
:101D1800191F1F1F1F1F1F1F1B1F1F1F1F1F1F1FD5
:101D28001D0001222EE708222CE710222AE7202294
:101D380028E7402226E7802224E7694A526D02F00C
:101D48000702052A0ED8DFE802F0034A0507090B47
:101D5800002217E7082215E7102213E7202211E7CF
:101D680040220FE780220DE75D4A526D02F007021C
:101D7800052A0ED8DFE802F003350507090B002213
:101D880000E70822FEE61022FCE62022FAE64022BE
:101D9800F8E68022F6E602F50E32926D02F00702AE
:101DA800052A0ED8DFE802F0031F0507090B0222F7
:101DB800E8E60822E6E61022E4E62022E2E64022EF
:101DC800E0E68022DEE60422DCE60422DAE60422EB
:101DD800D8E60422D6E60422D4E60422D2E6042277
:101DE800D0E60422CEE60422CCE6202A27D8022A0E
:101DF800C0F01881023A1E2A00F21681DFE812F0BC
:101E08002600140156001401140114015B0014018A
:101E180014011401140114011401140160001401C7
:101E28001401140114011401140114011401140102
:101E38001401140114011401140114016C00402A46
:101E480002D14FF4004006E00120FEE001F0A2FEBE
:101E5800002800F0EB80626A224B33F81220B0FBB6
:101E6800F2F3656805EB4501994200F2E180B3EBB6
:101E7800053F00F2DF80002633463146FEF708FAB8
:101E8800090241EA106100026B08C0182A4633466D
:101E980041F10001FEF7FCF9A0F54072124B9A429D
:101EA80000F2CA802368D8603046CEE003A801F06B
:101EB80083FE0498CCE7684601F07EFF0198C7E7E7
:101EC800074B1B6813F0200F08D0054B1B68C3F3A2
:101ED800C1030648D840BEE70548BCE70348BAE74F
:101EE8000044025814470008FFFC0F000090D0037C
:101EF80000093D00202A15D8202A00F29F80DFE83B
:101F080002F015369D9D399D9D9D3E9D9D9D9D9DF3
:101F18009D9D439D9D9D9D9D9D9D9D9D9D9D9D9D43
:101F28009D9D4F00402A06D001208EE001F012F856
:101F3800002800F08580626A4B4B33F81230B0FB02
:101F4800F3F06268530803EB4003B3FBF2F3A3F129
:101F580010014FF6EF72914274D89AB222F00F0234
:101F6800C3F3420313432268D36000206DE001F0FD
:101F780003F8DDE703A801F01FFE0498D8E76846D8
:101F880001F01AFF0198D3E7384B1B6813F0200FB4
:101F980008D0364B1B68C3F3C1033548D840CAE79D
:101FA8003448C8E73248C6E7402A02D14FF4004017
:101FB80005E0012049E000F0CDFF00284FD0626A1B
:101FC800294B33F81230B0FBF3F0636800EB530091
:101FD800B0FBF3F0A0F110024FF6EF739A4240D82D
:101FE800236880B2D86000202FE000F0C5FFE4E746
:101FF80003A801F0E1FD0498DFE7684601F0DCFE84
:102008000198DAE7194B1B6813F0200F08D0174B1B
:102018001B68C3F3C1031648D840D0E71548CEE77C
:102028001348CCE7012010E001200EE000200CE06E
:1020380001200AE0012008E0012006E0012004E078
:10204800002002E0012000E001200123A4F86A300A
:10205800A4F8683000232367636706B070BD0020CA
:10206800F3E70120F1E700BF1447000800440258D5
:102078000090D00300093D00836A13F0010F06D0D9
:102088000268536823F40033C16A0B435360836AC0
:1020980013F0020F06D00268536823F48033016BF3
:1020A8000B435360836A13F0040F06D00268536829
:1020B80023F48023416B0B435360836A13F0080FAA
:1020C80006D00268536823F40043816B0B435360C6
:1020D800836A13F0100F06D00268936823F48053C4
:1020E800C16B0B439360836A13F0200F06D002681C
:1020F800936823F40053016C0B439360836A13F0D5
:10210800400F0AD00268536823F48013416C0B43D4
:102118005360436CB3F5801F0BD0836A13F0800FB4
:1021280006D00268536823F40023C16C0B43536044
:1021380070470268536823F4C003816C0B435360F3
:10214800EBE72DE9F84305460F4616469946DDF8B4
:1021580020802B68DC6937EA04040CBF01240024C2
:10216800B44257D1B8F1FF3FF3D002F0D7F8A0EB53
:10217800090040452FD8B8F1000F2CD02B681A68F9
:1021880012F0040FE5D0DA6912F4006FE1D04FF4D1
:1021980000621A622A6852E8003F23F4D07342E8CA
:1021A80000310029F6D12A6802F1080353E8003FFC
:1021B80023F00103083242E800310029F3D120233B
:1021C800C5F88430C5F88830C5F88C30002385F808
:1021D800803003201FE02A6852E8003F23F4D073C0
:1021E80042E800310029F6D12A6802F1080353E8D1
:1021F800003F23F00103083242E800310029F3D1FF
:102208002023C5F88430C5F88830002385F880304D
:10221800032000E00020BDE8F88330B583B0044611
:102228000023C0F88C3002F079F80546226812685D
:1022380012F0080F0FD123681B6813F0040F18D190
:102248002023C4F88430C4F888300020E06684F87D
:10225800800003B030BD6FF07E4300930346002238
:102268004FF400112046FFF76CFF0028E3D003204D
:10227800EFE76FF07E4300932B4600224FF4800176
:102288002046FFF75EFF0028DAD00320E1E778B3A5
:1022980010B50446D0F884300BB32423C4F8843036
:1022A8002268136823F0010313602046FFF7E6FB5A
:1022B800012813D0A36ABBB92268536823F490435A
:1022C80053602268936823F02A0393602268136896
:1022D80043F0010313602046FFF79FFF10BD80F80D
:1022E8008030FEF763FDD8E72046FFF7C5FEE3E739
:1022F80001207047436E2BB90123A0F86A30A0F87B
:102308006830704730B403689A68C2F342629968CB
:10231800490F094D6B5C1B01084C615C93FBF1F3A1
:10232800A0F86A30AB5C1B01A25C93FBF2F3A0F847
:10233800683030BC704700BF344700082C4700089D
:1023480090F88030012B18D0012380F880302423A6
:10235800C0F8843003681A68196821F0010119600F
:1023680022F000520023436601680A602022C0F868
:10237800842080F88030184670470220704738B5AE
:1023880090F88030012B1DD00446012380F880305E
:102398002423C0F8843003681D681A6822F00102FB
:1023A8001A600268936823F0604319439160FFF74D
:1023B800A1FF23681D602023C4F88430002084F81E
:1023C800800038BD0220FCE738B590F88030012B3A
:1023D8001DD00446012380F880302423C0F88430BF
:1023E80003681D681A6822F001021A60026893687F
:1023F80023F0606319439160FFF77CFF23681D6039
:102408002023C4F88430002084F8800038BD0220DE
:10241800FCE70000002800F0188338B5044603687C
:1024280013F0010F25D0944A136903F03803926A18
:10243800102B15D0182B0FD06368B3F5803F3FD011
:10244800002B53D18C4B1A6822F480321A601A6818
:1024580022F480221A6038E002F00302022AEBD14B
:10246800854B1B6813F4003F03D06368002B00F012
:10247800EE82236813F0020F00F0A1807E4A1369F0
:10248800926A13F038035AD0182B55D0E368002B02
:1024980000F0DE8078490A6822F0190213430B60C5
:1024A80001F03CFF0546744B1B6813F0040F40F025
:1024B800AD8001F033FF401B0228F4D90320CDE2A0
:1024C8006D4A136843F48033136063682BB301F0DB
:1024D80025FF0546684B1B6813F4003FC9D101F07E
:1024E8001DFF401B6428F5D90320B7E2B3F5A02FE0
:1024F80009D0614B1A6822F480321A601A6822F4F3
:1025080080221A60E1E75C4B1A6842F480221A6064
:102518001A6842F480321A60D7E701F0FFFE0546D8
:10252800554B1B6813F4003FA3D001F0F7FE401B86
:102538006428F5D9032091E212F0030FA6D14E4B7F
:102548001B6813F0040F03D0E368002B00F08182AE
:10255800494A136823F01903E1680B43136001F03B
:10256800DDFE0546444B1B6813F0040F06D101F04D
:10257800D5FE401B0228F5D903206FE201F0E8FEE2
:1025880041F20303984212D82269402A07D03A49F7
:102598004B6823F47C3343EA02334B600FE0364A3E
:1025A800536823F47C3343F40033536007E0324A22
:1025B800536823F0FE43216943EA016353602368AB
:1025C80013F0100F00F088802B4A136903F03803CA
:1025D800926A082B56D0182B50D0E369002B00F0D4
:1025E800B880254A136843F08003136001F096FE13
:1025F8000546214B1B6813F4807F40F0888001F06A
:102608008DFE401B0228F4D9032027E201F0A0FE2A
:1026180041F20303984212D82269402A07D016498A
:102628004B6823F47C3343EA02334B60C7E7124A12
:10263800536823F47C3343F400335360BFE70E4AF6
:10264800536823F0FE43216943EA01635360B6E708
:10265800094A136823F00103136001F05FFE054681
:10266800054B1B6813F0040FA9D001F057FE401B5F
:102678000228F5D90320F1E10044025802F00302D0
:10268800012AAAD1A14B1B6813F4807F03D0E36908
:10269800802B40F0E08101F05BFE41F20303984299
:1026A80012D8226A202A07D098494B6823F0F843A9
:1026B80043EA82634B600FE0944A536823F0F8437F
:1026C80043F08043536007E0904AD36823F07C537B
:1026D800216A43EA0163D360236813F0080F60D0CE
:1026E8006369002B49D0894A536F43F0010353674C
:1026F80001F014FE0546854B5B6F13F0020F50D1B5
:1027080001F00CFE401B0228F5D90320A6E101F0D8
:102718001FFE41F20303984212D8226A202A07D0EA
:102728007A494B6823F0F84343EA82634B60D3E766
:10273800764A536823F0F84343F080435360CBE76D
:10274800724AD36823F07C53216A43EA0163D36059
:10275800C2E76E4A136823F08003136001F0DEFDC0
:1027680005466A4B1B6813F4807FB5D001F0D6FD8F
:10277800401B0228F5D9032070E1644A536F23F007
:102788000103536701F0CAFD0546604B5B6F13F008
:10279800020F06D001F0C2FD401B0228F5D9032024
:1027A8005CE1236813F0200F29D0A3699BB1574A35
:1027B800136843F48053136001F0B0FD0546534B92
:1027C8001B6813F4005F1AD101F0A8FD401B022812
:1027D800F5D9032042E14D4A136823F4805313606E
:1027E80001F09CFD0546494B1B6813F4005F06D0B9
:1027F80001F094FD401B0228F5D903202EE123683F
:1028080013F0040F21D1636A002B00F026813F4AA0
:10281800126902F03802182A00F0EE80022B79D0F3
:102828003A4A136823F08073136001F077FD044679
:10283800364B1B6813F0007F00F0DC8001F06EFD62
:10284800001B0228F4D9032008E1314A136843F435
:102858008073136001F062FD05462D4B1B6813F46D
:10286800807F06D101F05AFD401B6428F5D903206A
:10287800F4E0A368012B0AD00BBB244B1A6F22F09B
:1028880001021A671A6F22F004021A6704E01F4A4D
:10289800136F43F001031367A36833B301F03EFDE0
:1028A80005461A4B1B6F13F0020FACD101F036FD31
:1028B800401B41F288339842F3D90320CEE0052B20
:1028C80009D0124B1A6F22F001021A671A6F22F010
:1028D80004021A67E0E70D4B1A6F42F004021A6708
:1028E8001A6F42F001021A67D6E701F017FD054694
:1028F800064B1B6F13F0020F85D001F00FFD401B34
:1029080041F288339842F3D90320A7E000440258E3
:1029180000480258594A136823F08073136001F085
:10292800FDFC0546554B1B6813F0007F06D001F0EF
:10293800F5FC401B0228F5D903208FE04F4B996A1C
:102948004F4A0A40A16AE06A41EA00110A439A62C2
:10295800226B013AC2F30802616B0139490289B25C
:102968000A43A16B0139090401F4FE010A43E16B32
:102978000139090601F0FE410A431A63DA6A22F0B6
:102988000102DA625A6B6FF3CF02A16C42EAC1020C
:102998005A63DA6A22F00C02216C0A43DA62DA6AB4
:1029A80022F00202616C0A43DA62DA6A42F4803287
:1029B800DA62DA6A42F40032DA62DA6A42F48022CF
:1029C800DA62DA6A42F00102DA621A6842F0807268
:1029D8001A6001F0A3FC0446284B1B6813F0007F23
:1029E80006D101F09BFC001B0228F5D9032035E035
:1029F800002033E0002031E0204A916A106B012B5F
:102A08002DD001F00303A26A93422AD1C1F3051124
:102A1800E36A994227D1C0F30802236B013B9A422B
:102A280023D1C0F34622636B013B9A421FD1C0F306
:102A38000642A36B013B9A421BD1C0F30660E36BCD
:102A4800013B984217D1002008E00120704701207F
:102A580004E0012002E0012000E0002038BD012050
:102A6800FCE70120FAE70120F8E70120F6E701205A
:102A7800F4E70120F2E70120F0E700BF0044025824
:102A88000CFCFFFF754B1B6903F03803102B00F09B
:102A9800DE80182B0FD0002B40F0DB806F4B1B68BB
:102AA80013F0200F00F0D7806C4B1B68C3F3C103F1
:102AB8006B48D840704710B4684B9A6A02F003021A
:102AC8009C6AC4F30510D96A01F001015B6BC3F37A
:102AD800CC0301FB03F307EE903AF8EE677A14F49F
:102AE8007C7F77D0012A4AD0022A76D0002A40F08B
:102AF80091805A4B1B6813F0200F23D057490A685E
:102B0800C2F3C102564BD34007EE103AF8EE476ABB
:102B180007EE100AB8EE476A86EE867A0B6BC3F3A7
:102B2800080306EE903AF8EE666A9FED4E6A67EE85
:102B3800867A76EEA77AF7EE006A77EEA67A27EE1F
:102B4800277A38E007EE100AF8EE476A9FED466AE2
:102B580086EE267A414B1B6BC3F3080306EE903AC8
:102B6800F8EE666A9FED3F6A67EE867A76EEA77A98
:102B7800F7EE006A77EEA67A27EE277A1BE007EED3
:102B8800100AF8EE476A9FED396A86EE267A334BCB
:102B98001B6BC3F3080306EE903AF8EE666A9FEDE6
:102BA800316A67EE867A76EEA77AF7EE006A77EEF4
:102BB800A67A27EE277A294B1B6BC3F346230133EA
:102BC80007EE903AF8EE677AC7EE276AFCEEE67AE7
:102BD80017EE900A5DF8044B704707EE100AF8EEFE
:102BE800476A9FED236A86EE267A1C4B1B6BC3F35C
:102BF800080306EE903AF8EE666A9FED1A6A67EEE9
:102C0800867A76EEA77AF7EE006A77EEA67A27EE4E
:102C1800277AD0E707EE100AF8EE476A9FED136AA5
:102C280086EE267A0D4B1B6BC3F3080306EE903A2B
:102C3800F8EE666A9FED0B6A67EE867A76EEA77AFB
:102C4800F7EE006A77EEA67A27EE277AB3E7094807
:102C58007047094870470248704700BF004402584F
:102C68000090D003000000390024744C0024744AFA
:102C780020BCBE4B40787D0100093D00002800F0D3
:102C8800328170B50D4604469B4B1B6803F00F0359
:102C98008B420BD2984A136823F00F030B4313603F
:102CA800136803F00F038B4240F01F81236813F071
:102CB800040F0CD02269914B9B6903F070039A4270
:102CC80005D98E498B6923F070031A438A612368FA
:102CD80013F0080F0CD06269884BDB6903F07003AE
:102CE8009A4205D98549CB6923F070031A43CA6112
:102CF800236813F0100F0CD0A269804BDB6903F432
:102D0800E0639A4205D97D49CB6923F4E0631A430D
:102D1800CA61236813F0200F0CD0E269774B1B6A55
:102D280003F070039A4205D974490B6A23F07003C3
:102D38001A430A62236813F0020F0CD0E2686F4B43
:102D48009B6903F00F039A4205D96C498B6923F0FC
:102D58000F031A438A61236813F0010F41D0674AB1
:102D6800936923F47063A1680B4393616368022B32
:102D78000AD0032B27D0012B2CD0604A126812F0FE
:102D8800040F06D10120ADE0126812F4003F00F0F4
:102D9800AE805A490A6922F0070213430B6101F019
:102DA800BDFA0646554B1B6903F038036268B3EB5E
:102DB800C20F16D001F0B2FA801B41F28833984254
:102DC800F0D903208EE04D4A126812F0007FE0D15E
:102DD800012087E0494A126812F4807FD9D1012086
:102DE80080E0236813F0020F0CD0E268434B9B6924
:102DF80003F00F039A4205D240498B6923F00F0371
:102E08001A438A613C4B1B6803F00F03AB420AD993
:102E1800394A136823F00F032B431360136803F038
:102E28000F03AB4265D1236813F0040F0CD022695D
:102E3800324B9B6903F070039A4205D22F498B6984
:102E480023F070031A438A61236813F0080F0CD02B
:102E580062692A4BDB6903F070039A4205D227495D
:102E6800CB6923F070031A43CA61236813F0100F6B
:102E78000CD0A269214BDB6903F4E0639A4205D2C6
:102E88001E49CB6923F4E0631A43CA61236813F02F
:102E9800200F0CD0E269194B1B6A03F070039A42A9
:102EA80005D216490B6A23F070031A430A62FFF72A
:102EB800E9FD12498B69C3F30323114AD35C03F07C
:102EC8001F03D8408B6903F00F03D35C03F01F0383
:102ED80020FA03F30B4A13600B4B18600B4B18686E
:102EE80001F0BAF970BD012070470120FAE701200E
:102EF800F8E70120F6E700BF00200052004402581E
:102F08000447000800000020040000200C000020F6
:102F180008B5FFF7B7FD0B4A9369C3F303230A49C2
:102F2800CB5C03F01F0320FA03F3926902F00F024F
:102F3800885C00F01F0023FA00F0044A1060044A7D
:102F4800136008BD00440258044700080000002030
:102F58000400002008B5FFF7DBFF054BDB69C3F36E
:102F68000213044AD35C03F01F03D84008BD00BF16
:102F7800004402580447000808B5FFF7C9FF054B8D
:102F8800DB69C3F30223044AD35C03F01F03D84070
:102F980008BD00BF0044025804470008404B9B6A24
:102FA80003F00303032B79D070B505460E463C4A5F
:102FB800136823F08063136001F0B0F90446384BBE
:102FC8001B6813F0006F06D001F0A8F9031B022B51
:102FD800F5D9032070BD324B9A6A22F47C322968F5
:102FE80042EA01329A626A68013AC2F30802A968A1
:102FF8000139490289B20A43E9680139090401F42F
:10300800FE010A4329690139090601F0FE410A4314
:103018009A63DA6A22F0C00269690A43DA62DA6AF4
:1030280022F02002A9690A43DA62DA6A22F0100261
:10303800DA62DA6B6FF3CF02E96942EAC102DA6356
:10304800DA6A42F01002DA62C6B91A46DB6A43F459
:103058000023D362124A136843F08063136001F0BF
:103068005DF904460E4B1B6813F0006F14D101F094
:1030780055F9001B0228F5D90320ABE7012E05D02E
:10308800074AD36A43F40013D362E3E7044AD36AD6
:1030980043F48013D362DDE700209BE701207047EB
:1030A80000440258404B9B6A03F00303032B79D07A
:1030B80070B505460E463C4A136823F080531360EA
:1030C80001F02CF90446384B1B6813F0005F06D05A
:1030D80001F024F9031B022BF5D9032070BD324BF4
:1030E8009A6A22F07C72296842EA01529A626A68F6
:1030F800013AC2F30802A9680139490289B20A43B0
:10310800E9680139090401F4FE010A432969013912
:10311800090601F0FE410A431A64DA6A22F44062A1
:1031280069690A43DA62DA6A22F40072A9690A4311
:10313800DA62DA6A22F48072DA625A6C6FF3CF02CA
:10314800E96942EAC1025A64DA6A42F48072DA62D0
:10315800C6B91A46DB6A43F48003D362124A13687D
:1031680043F08053136001F0D9F804460E4B1B68F6
:1031780013F0005F14D101F0D1F8001B0228F5D933
:103188000320ABE7012E05D0074AD36A43F08073CA
:10319800D362E3E7044AD36A43F40003D362DDE76A
:1031A80000209BE70120704700440258F8B5044608
:1031B800036813F0006F30D0436EB3F5001F26D0BC
:1031C8000ED8ABB1B3F5801F07D102210430FFF749
:1031D800E5FE054695B12E4621E0012635461EE05E
:1031E800B3F5401F01D1002508E00126354616E059
:1031F800954AD36A43F40033D3620025924A136D8B
:1032080023F44013616E0B431365002607E0022187
:103218002430FFF747FF0546DCE7002635462368DC
:1032280013F4807F14D0636D042B2FD8DFE803F0EC
:10323800032127080800844AD36A43F40033D36281
:103248003DBB814A136D23F00703616D0B43136582
:10325800236813F4007F36D0A36D802B47D01DD888
:1032680023B3402B17D10021201DFFF797FE0546F9
:1032780021E00021201DFFF791FE0546E0E700212F
:1032880004F12400FFF70EFF0546D9E7012635466D
:10329800DEE72E46DCE70126354614E0C02B0AD0CF
:1032A800B3F5807F07D0012635460CE0664AD36A1D
:1032B80043F40033D3620DBB634A136D23F4E07308
:1032C800A16D0B431365236813F4806F3BD0D4F8CA
:1032D800A430B3F5800F2ED015D8EBB1B3F5001F8D
:1032E8000ED10021201DFFF759FE054619E00021E7
:1032F80004F12400FFF7D6FE0546DCE72E46E2E798
:10330800012635461FE0B3F5C00F0AD0B3F5000F0C
:1033180007D00126354616E04B4AD36A43F40033FA
:10332800D3627DB9484A936D23F46003D4F8A4109E
:103338000B43936507E0002104F12400FFF7B2FE78
:103348000546EEE72E46236813F4006F2AD0D4F81A
:10335800A830B3F1007F51D00CD8A3B1B3F1807F6E
:1033680005D10021201DFFF719FE054610E00126B2
:10337800354617E0B3F1407F0AD0B3F1806F07D02C
:10338800012635460EE0304AD36A43F40033D3624F
:10339800002D3AD12C4A936D23F0E063D4F8A8109D
:1033A8000B439365236813F0007F13D0A36C202B85
:1033B80035D02FD833B1102B29D1234AD36A43F4FF
:1033C8000033D3628DBB204AD36C23F03003A16C49
:1033D8000B43D364236813F4805F45D0E36DB3F5E2
:1033E800005F00F0898025D883B3B3F5805F1ED1D4
:1033F8000021201DFFF7D2FD05462CE0002104F135
:103408002400FFF74FFE0546C2E72E46CAE701260D
:103418003546DFE7302BD5D001263546DAE70221DD
:10342800201DFFF7BBFD0546CCE72E46D2E7012657
:10343800354619E0B3F5405F0DD0B3F5804F0AD09B
:103448000126354610E000BF00440258754AD36A89
:1034580043F40033D362002D55D1724A136D23F41F
:10346800E043E16D0B431365236813F4005F16D046
:10347800236EB3F5003F57D04AD83BB1B3F5803F30
:1034880043D10121201DFFF789FD0546002D52D1AA
:10349800644A136D23F4E023216E0B4313652368FC
:1034A80013F4804F18D0D4F8AC30B3F1005F53D088
:1034B80046D83BB1B3F1805F3FD10121201DFFF712
:1034C8006DFD0546002D4ED1564A936D23F0E0431D
:1034D800D4F8AC100B439365236813F4004F51D014
:1034E800E36EB3F1805F40D0B3F1005F55D0002B9D
:1034F80040D00126354645E0002104F12400FFF7BD
:10350800D1FD0546A7E72E46AEE701263546C6E7B4
:10351800B3F5802FBAD0B3F5A02FB7D0B3F5403F9D
:10352800B4D001263546BAE7012104F12400FFF79B
:10353800B9FD0546AAE72E46B1E701263546CBE791
:10354800B3F1804FBED0B3F1A04FBBD0B3F1405F11
:10355800B8D001263546BFE7012104F12400FFF762
:10356800A1FD0546AEE72E46B6E72E4AD36A43F4D8
:103578000033D362BDB92B4A136D23F04053E16E7B
:103588000B431365236813F0807F1BD0636C032BF8
:1035980042D8DFE803F00F0A3B0F0121201DFFF797
:1035A800FDFC0546E6E72E46ECE71E4AD36A43F4DF
:1035B8000033D3629DBB1B4AD36C23F00303616CB9
:1035C8000B43D364236813F4800F2DD1236813F0C1
:1035D800010F00F0A480A36F282B00F29E80DFE883
:1035E80003F08C9C9C9C9C9C9C9C879C9C9C9C9C7D
:1035F8009C9C959C9C9C9C9C9C9C8C9C9C9C9C9C1A
:103608009C9C8C9C9C9C9C9C9C9C8C000221201DBE
:10361800FFF7C4FC0546CDE701263546D2E72E461E
:10362800D0E700BF00440258574A136843F4807338
:10363800136000F073FE0746534B1B6813F4807F3A
:1036480005D100F06BFEC01B6428F5D90325002DB9
:103658004AD14E4B1B6FD4F8B020534013F4407F2F
:103668000CD04A4B1A6F22F44072196F41F4803122
:103678001967196F21F4803119671A67D4F8B030C7
:10368800B3F5807F15D08DBBD4F8B03003F4407209
:10369800B2F5407F1ED03D4A136923F47C53136171
:1036A8003A490B6FD4F8B020C2F30B0213430B67EF
:1036B8008CE700F033FE0746344B1B6F13F0020F04
:1036C800E1D100F02BFEC01B41F288339842F3D9B8
:1036D8000325D8E72D48026922F47C522C4901EAD7
:1036E800131313430361DBE72E466FE72E466DE79E
:1036F8000121201DFFF752FC0546E5B9234A536D09
:1037080023F03803A16F0B43536508E0012104F14E
:103718002400FFF7C7FC0546EFE701263546236876
:1037280013F0020F16D0636F052B28D8DFE803F0DB
:103738000A05200A0A0A2E46F1E70121201DFFF793
:103748002DFC0546F5B9114A536D23F00703616F47
:103758000B435365236813F0040F2BD0D4F8903033
:10376800052B00F2D780DFE803F01A15CE1A1A1AD3
:10377800012104F12400FFF795FC0546E2E7012644
:103788003546E7E72E46E5E7004802580044025868
:10379800CFFFFF000121201DFFF700FC0546002D8B
:1037A80040F0BB80B74A936D23F00703D4F890101C
:1037B8000B439365236813F0200F1CD0D4F88C308A
:1037C800B3F1005F00F0BD8000F2AC8043B1B3F10B
:1037D800805F40F0A4800021201DFFF7DFFB054635
:1037E800002D40F0B580A74A536D23F0E043D4F88C
:1037F8008C100B435365236813F0400F1CD0D4F88A
:103808009830B3F5006F00F0B78000F2A68043B19E
:10381800B3F5806F40F09E800021201DFFF7BEFBAE
:103828000546002D40F0AF80964A936D23F4E0538F
:10383800D4F898100B439365236813F0800F1CD0BD
:10384800D4F89C30B3F5804F00F0B18000F2A0802E
:1038580043B1B3F5005F40F098800021201DFFF7C9
:103868009DFB0546002D40F0A980864A936D23F400
:103878006043D4F89C100B439365236813F0080F3A
:103888000DD0D4F88030B3F5805F00F099807D4A80
:10389800536D23F44053D4F880100B4353652368C9
:1038A80013F0100F0DD0D4F89430B3F5807F00F0EA
:1038B8009180744A936D23F44073D4F894100B43A9
:1038C8009365236813F4002F00F09980D4F8A03092
:1038D800B3F5803F00F08880B3F5003F07D0002B98
:1038E80040F089800021201DFFF758FB0546002D78
:1038F80040F08480634A936D23F44033D4F8A010D9
:103908000B4393657BE0012104F12400FFF7CAFB18
:10391800054644E7012635464CE72E464AE7012688
:10392800354668E7B3F1804F3FF45AAFB3F1A04F83
:103938003FF456AFB3F1405F3FF452AF012635462E
:1039480059E7022104F12400FFF7ACFB054647E7DD
:103958002E4650E7012635466EE7B3F5805F3FF403
:1039680060AFB3F5A05F3FF45CAFB3F5406F3FF4D1
:1039780058AF012635465FE7022104F12400FFF71E
:1039880091FB05464DE72E4656E70126354674E776
:10399800B3F5004F3FF466AFB3F5204F3FF462AF85
:1039A800B3F5C04F3FF45EAF0126354665E7022107
:1039B80004F12400FFF776FB054653E72E465CE743
:1039C800022104F12400FFF76DFB00283FF45FAFEC
:1039D80001265CE7022104F12400FFF763FB0028BD
:1039E8003FF467AF012664E7022104F12400FFF7E2
:1039F80059FB05467BE70126354600E02E4623683D
:103A080013F4802F18D0D4F88430B3F5001F1FD0DA
:103A1800B3F5401F07D0B3F5801F20D1194AD36AE8
:103A280043F40033D362EDB9164A536D23F44013BF
:103A3800D4F884100B435365236813F4803F2AD0CD
:103A4800E36C8BB1B3F5803F1ED00126354622E0EA
:103A5800012104F12400FFF725FB0546E3E70126D1
:103A68003546E9E72E46E7E7064AD36A43F40033CA
:103A7800D3627DB9034AD36C23F48033E16C0B43E2
:103A8800D36408E0004402580221201DFFF786FA9B
:103A98000546EEE72E46236813F0005F10D1236831
:103AA80013F4003F26D0E36FB3F5807F14D010D90C
:103AB800B3F5007F15D0B3F5407F12D0012619E089
:103AC800022104F12400FFF7EDFA0028E7D00126CF
:103AD800E5E733B101260DE02D4AD36A43F40033FC
:103AE800D362002D49D12A4A536D23F44073E16F04
:103AF8000B435365236813F4801F06D0244A136DC3
:103B080023F00043216F0B431365236813F0805F94
:103B180007D01F4A136923F48043D4F8B4100B4329
:103B28001361236813F4001F06D0194A136D23F09C
:103B38008073A16E0B431365236813F0804F09D07F
:103B4800134B1A6922F400421A611A69D4F8B810A2
:103B58000A431A612368002B11DB236813F4000F52
:103B680007D00B4A536D23F44003D4F888100B4355
:103B7800536506B101263046F8BD2E46BAE7044A19
:103B8800D36C23F04053216D0B43D364E5E700BFAA
:103B98000044025808B5FFF7BBF9054B1B6AC3F38D
:103BA8000213044AD35C03F01F03D84008BD00BFCA
:103BB800004402580447000810B4794B9A6A9C6A7A
:103BC800C4F3053CD96AC1F30011DB6BC3F3CC0322
:103BD80001FB03F314F47C3F00F0DD8002F00302E4
:103BE80007EE903AF8EE677A012A4BD0022A00F0E5
:103BF8009880002A40F0B280694B1B6813F0200FB0
:103C080023D067490A68C2F3C102664BD34007EE66
:103C1800103AF8EE476A07EE10CAB8EE476A86EE21
:103C2800867A8B6BC3F3080306EE903AF8EE666A61
:103C38009FED5D6A67EE867A76EEA77AF7EE006A00
:103C480077EEA67A27EE277A38E007EE10CAF8EE64
:103C5800476A9FED566A86EE267A514B9B6BC3F3F3
:103C6800080306EE903AF8EE666A9FED4F6A67EE33
:103C7800867A76EEA77AF7EE006A77EEA67A27EECE
:103C8800277A1BE007EE10CAF8EE476A9FED486AEC
:103C980086EE267A424B9B6BC3F3080306EE903AF6
:103CA800F8EE666A9FED406A67EE867A76EEA77A46
:103CB800F7EE006A77EEA67A27EE277A384A936BF2
:103CC800C3F3462307EE903AF8EE677AF7EE006AF8
:103CD80077EEA67A87EE276ABCEEC66A80ED006AA0
:103CE800936BC3F3064307EE903AF8EE677A77EEE4
:103CF800A67A87EE276ABCEEC66A80ED016A936BE6
:103D0800C3F3066307EE903AF8EE677A77EEA67A81
:103D1800C7EE276AFCEEE66AC0ED026A5DF8044B5E
:103D2800704707EE10CAF8EE476A9FED226A86EEE2
:103D3800267A1B4B9B6BC3F3080306EE903AF8EE0A
:103D4800666A9FED196A67EE867A76EEA77AF7EECD
:103D5800006A77EEA67A27EE277AAFE707EE10CA51
:103D6800F8EE476A9FED126A86EE267A0C4B9B6B3B
:103D7800C3F3080306EE903AF8EE666A9FED0A6A06
:103D880067EE867A76EEA77AF7EE006A77EEA67A7D
:103D980027EE277A92E70023036043608360BDE73C
:103DA800004402580090D003000000390024744CED
:103DB8000024744A20BCBE4B10B4794B9A6A9C6AA2
:103DC800C4F3055CD96AC1F300215B6CC3F3CC036F
:103DD80001FB03F314F07C7F00F0DD8002F00302A6
:103DE80007EE903AF8EE677A012A4BD0022A00F0E3
:103DF8009880002A40F0B280694B1B6813F0200FAE
:103E080023D067490A68C2F3C102664BD34007EE64
:103E1800103AF8EE476A07EE10CAB8EE476A86EE1F
:103E2800867A0B6CC3F3080306EE903AF8EE666ADE
:103E38009FED5D6A67EE867A76EEA77AF7EE006AFE
:103E480077EEA67A27EE277A38E007EE10CAF8EE62
:103E5800476A9FED566A86EE267A514B1B6CC3F370
:103E6800080306EE903AF8EE666A9FED4F6A67EE31
:103E7800867A76EEA77AF7EE006A77EEA67A27EECC
:103E8800277A1BE007EE10CAF8EE476A9FED486AEA
:103E980086EE267A424B1B6CC3F3080306EE903A73
:103EA800F8EE666A9FED406A67EE867A76EEA77A44
:103EB800F7EE006A77EEA67A27EE277A384A136C6F
:103EC800C3F3462307EE903AF8EE677AF7EE006AF6
:103ED80077EEA67A87EE276ABCEEC66A80ED006A9E
:103EE800136CC3F3064307EE903AF8EE677A77EE61
:103EF800A67A87EE276ABCEEC66A80ED016A136C63
:103F0800C3F3066307EE903AF8EE677A77EEA67A7F
:103F1800C7EE276AFCEEE66AC0ED026A5DF8044B5C
:103F2800704707EE10CAF8EE476A9FED226A86EEE0
:103F3800267A1B4B1B6CC3F3080306EE903AF8EE87
:103F4800666A9FED196A67EE867A76EEA77AF7EECB
:103F5800006A77EEA67A27EE277AAFE707EE10CA4F
:103F6800F8EE476A9FED126A86EE267A0C4B1B6CB8
:103F7800C3F3080306EE903AF8EE666A9FED0A6A04
:103F880067EE867A76EEA77AF7EE006A77EEA67A7B
:103F980027EE277A92E70023036043608360BDE73A
:103FA800004402580090D003000000390024744CEB
:103FB8000024744A20BCBE4BF0B583B000236BE0EC
:103FC80085685E000324B44025EA0405CC68B44043
:103FD8002C438460456825EA0C054C68C4F300143A
:103FE8009C402C43446069E0DD08083550F82540C2
:103FF80003F0070C4FEA8C0C4FF00F0E0EFA0CFE74
:1040080024EA0E0E0C6904FA0CF444EA0E0440F893
:1040180025406BE0092400E0002404FA0EF42C4348
:104028000CF1020C694D45F82C404FF0B04425685E
:10403800D44325EA02064F6817F4801F01D042EAEC
:1040480005064FF0B0452E606D6804EA05064F6816
:1040580017F4001F01D042EA05064FF0B0456E6024
:10406800D5F8845004EA05064F6817F4003F01D0DC
:1040780042EA05064FF0B045C5F88460D5F880508F
:104088002C404E6816F4803F01D042EA05044FF0F8
:10409800B042C2F8804001330A6832FA03F400F0F3
:1040A80092804FF0010C0CFA03FC1CEA0202F2D0D9
:1040B8004C6804F00304013C012C81D94C6804F0DD
:1040C8000304032C0CD0C4685D004FF0030C0CFAF9
:1040D80005FC24EA0C0C8C68AC4044EA0C04C4606F
:1040E8004C6804F00304022C3FF47EAF04684FEAE6
:1040F800430E4FF0030C0CFA0EFC24EA0C0C4C682F
:1041080004F0030404FA0EF444EA0C0404604C6856
:1041180014F4403FBFD02E4CD4F8F45045F00205BB
:10412800C4F8F450D4F8F44004F002040194019C5B
:104138004FEA930C0CF10205244C54F8255003F077
:10414800030E4FEA8E0E0F2404FA0EF425EA040536
:10415800204CA0423FF460AF04F58064A04222D016
:1041680004F58064A04220D004F58064A0421ED0EB
:1041780004F58064A0421CD004F58064A0421AD0E3
:1041880004F58064A04218D004F58064A04216D0DB
:1041980004F58064A04214D004F58064A0423FF482
:1041A80039AF0A2439E7012437E7022435E7032425
:1041B80033E7042431E705242FE706242DE70724F5
:1041C8002BE7082429E703B0F0BD00BF000400581E
:1041D80000440258000002580369194201D0012026
:1041E8007047002070470AB18161704709048161F6
:1041F8007047436901EA030221EA030141EA0241E7
:1042080081617047134BDB6813F0040F07D1114B22
:10421800DB6803F0070383421AD00120704710B50A
:104228000C4AD36823F007030343D36000F076F801
:104238000446084B5B6813F4005F07D100F06EF882
:10424800001BB0F57A7FF4D9012000E0002010BDF2
:104258000020704700480258104B1B780BB901200A
:10426800704710B504464FF47A70B0FBF3F30C4A6C
:104278001068B0FBF3F0FCF7F3FE68B90F2C01D916
:1042880001200AE0002221464FF0FF30FCF7D4FE5F
:10429800044B1C60002000E0012010BD0800002035
:1042A800040000200C00002010B50320FCF7B2FE2B
:1042B800FEF7E8FB0F498B69C3F303230E4AD35C6F
:1042C80003F01F03D8408B6903F00F03D35C03F09E
:1042D8001F0320FA03F3094A1360094B18600F20E3
:1042E800FFF7BAFF10B10124204610BD0446FCF7C1
:1042F800D7FCF9E7004402580447000800000020F2
:1043080004000020034B1B78034A11680B44136018
:10431800704700BF0800002008020020014B186801
:10432800704700BF0802002038B50446FFF7F6FFC3
:104338000546B4F1FF3F02D0044B1B781C44FFF73D
:10434800EDFF401BA042FAD338BD00BF0800002093
:10435800014B1868000C70470010005CDFF834D07F
:10436800FCF7B4FD0C480D490D4A002302E0D4586F
:10437800C4500433C4188C42F9D30A4A0A4C0023A7
:1043880001E013600432A242FBD300F019F8FBF7F6
:10439800DFFF70470000022000000020100000200E
:1043A8004C470008100000200C020020FEE70244E1
:1043B8000346934200D1704703F8011BF9E7000058
:1043C80070B50D4D0D4C641BA4100026A64209D1F2
:1043D8000B4D0C4C00F076F9641BA4100026A64285
:1043E80005D170BD55F8043B98470136EEE755F8FE
:1043F800043B98470136F2E7444700084447000861
:1044080044470008484700082DE9F047089D0E4634
:1044180004460F46002B4AD194468C45B2FA82F2E4
:1044280060D942B1C2F12003974020FA03F30CFA95
:1044380002FC1F4394404FEA1C4E1FFA8CF6B7FB50
:10444800FEF1230C0EFB117743EA074301FB06F04C
:1044580098420AD91CEB030301F1FF3780F015815C
:10446800984240F21281023963441B1AA4B2B3FB8A
:10447800FEF00EFB103344EA034400FB06F6A642A6
:104488000AD91CEB040400F1FF3380F00081A64236
:1044980040F2FD806444023840EA0140A41B002138
:1044A8001DB1D4400023C5E90043BDE8F0878B4225
:1044B80005D90DB1C5E9000100210846F5E7B3FAB1
:1044C80083F1002946D1B34202D3824200F2F5803B
:1044D800841A66EB030201201746002DE5D0C5E9D2
:1044E8000047E2E7002A40F09380A1EB0C034FEA73
:1044F8001C471FFA8CFE0121B3FBF7F607FB1630A9
:10450800230C43EA00430EFB06F0984208D91CEB43
:10451800030306F1FF3802D2984200F2D0804646E3
:104528001B1AA4B2B3FBF7F007FB103344EA0344A9
:104538000EFB00FEA64508D91CEB040400F1FF336E
:1045480002D2A64500F2B6801846A4EB0E0440EA53
:104558000640A5E7C1F120078B4022FA07FC4CEA88
:10456800030C06FA01FE20FA07F426FA07F344EAD8
:104578000E0400FA01F84FEA1C404FEA1449B3FB55
:10458800F0FE1FFA8CF600FB1E3349EA03430EFBCC
:1045980006F9994502FA01F20BD91CEB03030EF157
:1045A800FF3A80F08580994540F28280AEF1020E94
:1045B8006344A3EB0909A4B2B9FBF0F300FB139918
:1045C80044EA094403FB06F6A64208D91CEB040496
:1045D80003F1FF3068D2A64266D9023B644443EA3D
:1045E8000E40A41BA0FB02E6B4427346B14652D368
:1045F8004FD05DB1B8EB030264EB090404FA07F786
:1046080022FA01F31F43CC40C5E9007400214CE7AE
:10461800C2F1200120FA01F30CFA02FC26FA01F19A
:10462800964033434FEA1C471FFA8CFEB1FBF7F064
:1046380007FB1016190C41EA064100FB0EF68E42E4
:1046480004FA02F408D91CEB010100F1FF382DD25D
:104658008E422BD902386144891B9BB2B1FBF7F615
:1046680007FB161143EA014306FB0EF1994208D9EC
:104678001CEB030306F1FF3814D2994212D9023E0B
:1046880063445B1A46EA004136E73946EDE61846C8
:1046980002E7F045ADD2BEEB020366EB0C0601382B
:1046A800B146A6E74646ECE7034698E74046D3E717
:1046B800D6467EE76444023847E708460DE7023EDF
:1046C80063442DE7F8B500BFF8BC08BC9E467047A8
:0C46D800F8B500BFF8BC08BC9E46704757
:1046E40002030400010200000010025800100258E6
:1046F400001002580000025800000258000002583E
:104704000000000001020304010203040607080973
:10471400010002000400060008000A000C0010005A
:104724002000400080000001080402040801010187
:0847340001010103070100006F
:08473C00D4FCFF7F0100000026
:044744003503000831
:044748000D03000855
:10474C000090D0030090D003010000001000000086
:040000050800436547
:00000001FF
